{
  "address": "0xCB03fA855281280c12A01129D74139bc3267aa3A",
  "abi": [
    {
      "inputs": [
        {
          "internalType": "address",
          "name": "owner",
          "type": "address"
        },
        {
          "internalType": "uint256",
          "name": "creditLimit",
          "type": "uint256"
        }
      ],
      "stateMutability": "nonpayable",
      "type": "constructor"
    },
    {
      "inputs": [],
      "name": "ALERADY_REGISTERED",
      "type": "error"
    },
    {
      "inputs": [],
      "name": "NOT_AUTHORISED_BY_OWNER",
      "type": "error"
    },
    {
      "inputs": [],
      "name": "NOT_OWNER",
      "type": "error"
    },
    {
      "inputs": [],
      "name": "NOT_REGISTERED",
      "type": "error"
    },
    {
      "inputs": [
        {
          "internalType": "address",
          "name": "_address",
          "type": "address"
        }
      ],
      "name": "accessCreditInfo",
      "outputs": [
        {
          "components": [
            {
              "internalType": "uint256",
              "name": "creditScore",
              "type": "uint256"
            },
            {
              "internalType": "uint256",
              "name": "creditLimit",
              "type": "uint256"
            },
            {
              "internalType": "enum CreditInfo.Type",
              "name": "_type",
              "type": "uint8"
            },
            {
              "internalType": "uint256",
              "name": "creditInquiry",
              "type": "uint256"
            },
            {
              "internalType": "bool",
              "name": "IsPresent",
              "type": "bool"
            }
          ],
          "internalType": "struct CreditInfo.Info",
          "name": "",
          "type": "tuple"
        }
      ],
      "stateMutability": "view",
      "type": "function"
    },
    {
      "inputs": [
        {
          "internalType": "address",
          "name": "_address",
          "type": "address"
        }
      ],
      "name": "accessCreditInfo_Owner",
      "outputs": [
        {
          "components": [
            {
              "internalType": "uint256",
              "name": "creditScore",
              "type": "uint256"
            },
            {
              "internalType": "uint256",
              "name": "creditLimit",
              "type": "uint256"
            },
            {
              "internalType": "enum CreditInfo.Type",
              "name": "_type",
              "type": "uint8"
            },
            {
              "internalType": "uint256",
              "name": "creditInquiry",
              "type": "uint256"
            },
            {
              "internalType": "bool",
              "name": "IsPresent",
              "type": "bool"
            }
          ],
          "internalType": "struct CreditInfo.Info",
          "name": "",
          "type": "tuple"
        }
      ],
      "stateMutability": "view",
      "type": "function"
    },
    {
      "inputs": [
        {
          "internalType": "uint256",
          "name": "_typeIndex",
          "type": "uint256"
        }
      ],
      "name": "addCreditInfo",
      "outputs": [],
      "stateMutability": "nonpayable",
      "type": "function"
    },
    {
      "inputs": [
        {
          "internalType": "address",
          "name": "_address",
          "type": "address"
        }
      ],
      "name": "authoriseUser",
      "outputs": [],
      "stateMutability": "nonpayable",
      "type": "function"
    },
    {
      "inputs": [
        {
          "internalType": "address",
          "name": "_address",
          "type": "address"
        }
      ],
      "name": "calculateCreditScore",
      "outputs": [],
      "stateMutability": "nonpayable",
      "type": "function"
    },
    {
      "inputs": [
        {
          "internalType": "address",
          "name": "",
          "type": "address"
        }
      ],
      "name": "isAuthorised",
      "outputs": [
        {
          "internalType": "bool",
          "name": "",
          "type": "bool"
        }
      ],
      "stateMutability": "view",
      "type": "function"
    },
    {
      "inputs": [
        {
          "internalType": "address",
          "name": "",
          "type": "address"
        }
      ],
      "name": "paymentHistory",
      "outputs": [
        {
          "internalType": "uint256",
          "name": "",
          "type": "uint256"
        }
      ],
      "stateMutability": "view",
      "type": "function"
    },
    {
      "inputs": [
        {
          "internalType": "uint256",
          "name": "_typeIndex",
          "type": "uint256"
        }
      ],
      "name": "updateCreditInfo",
      "outputs": [],
      "stateMutability": "nonpayable",
      "type": "function"
    },
    {
      "inputs": [
        {
          "internalType": "address",
          "name": "_address",
          "type": "address"
        },
        {
          "internalType": "uint256",
          "name": "_creditScore",
          "type": "uint256"
        },
        {
          "internalType": "uint256",
          "name": "_creditLimit",
          "type": "uint256"
        },
        {
          "internalType": "uint256",
          "name": "_typeIndex",
          "type": "uint256"
        }
      ],
      "name": "updateCreditInfo_Owner",
      "outputs": [],
      "stateMutability": "nonpayable",
      "type": "function"
    },
    {
      "inputs": [
        {
          "internalType": "address",
          "name": "_address",
          "type": "address"
        },
        {
          "internalType": "uint256",
          "name": "_paymentHistory",
          "type": "uint256"
        }
      ],
      "name": "updatePaymentHistory",
      "outputs": [],
      "stateMutability": "nonpayable",
      "type": "function"
    }
  ],
  "transactionHash": "0x2cd7441d57286cac6378d1690532f16a57e222a5552073b25604194fb9030af9",
  "args": [
    "0x1d7803057f8cf1f5175B6ea0c3B268138485d714",
    10000
  ],
  "numDeployments": 1,
  "solcInputHash": "1836b0bc546df20060f60b7617627d92",
  "bytecode": "0x60c06040523480156200001157600080fd5b506040516200168138038062001681833981810160405281019062000037919062000120565b8173ffffffffffffffffffffffffffffffffffffffff1660808173ffffffffffffffffffffffffffffffffffffffff16815250508060a08181525050505062000167565b600080fd5b600073ffffffffffffffffffffffffffffffffffffffff82169050919050565b6000620000ad8262000080565b9050919050565b620000bf81620000a0565b8114620000cb57600080fd5b50565b600081519050620000df81620000b4565b92915050565b6000819050919050565b620000fa81620000e5565b81146200010657600080fd5b50565b6000815190506200011a81620000ef565b92915050565b600080604083850312156200013a57620001396200007b565b5b60006200014a85828601620000ce565b92505060206200015d8582860162000109565b9150509250929050565b60805160a0516114d8620001a96000396000610bd801526000818161020d015281816103a90152818161057e01528181610ceb0152610dca01526114d86000f3fe608060405234801561001057600080fd5b506004361061009e5760003560e01c80634b07602c116100665780634b07602c1461016b57806351b699cd1461018757806368af397a146101b7578063de3bea0d146101d3578063f1c3753a146101ef5761009e565b80631379f2f0146100a357806318ab4577146100bf5780631ff08c3f146100ef578063316b73d41461010b5780633be4f30f1461013b575b600080fd5b6100bd60048036038101906100b89190611158565b61020b565b005b6100d960048036038101906100d491906111bf565b61039f565b6040516100e691906112f5565b60405180910390f35b61010960048036038101906101049190611310565b61057c565b005b610125600480360381019061012091906111bf565b610649565b60405161013291906112f5565b60405180910390f35b610155600480360381019061015091906111bf565b61082b565b604051610162919061135f565b60405180910390f35b6101856004803603810190610180919061137a565b610843565b005b6101a1600480360381019061019c91906111bf565b610b10565b6040516101ae91906113b6565b60405180910390f35b6101d160048036038101906101cc919061137a565b610b30565b005b6101ed60048036038101906101e891906111bf565b610ce9565b005b610209600480360381019061020491906111bf565b610dc8565b005b7f000000000000000000000000000000000000000000000000000000000000000073ffffffffffffffffffffffffffffffffffffffff163373ffffffffffffffffffffffffffffffffffffffff1614610290576040517f71d78b1200000000000000000000000000000000000000000000000000000000815260040160405180910390fd5b61029861107c565b6040518060a001604052808581526020018481526020018360018111156102c2576102c16111fb565b5b60018111156102d4576102d36111fb565b5b8152602001428152602001600115158152509050806000808773ffffffffffffffffffffffffffffffffffffffff1673ffffffffffffffffffffffffffffffffffffffff168152602001908152602001600020600082015181600001556020820151816001015560408201518160020160006101000a81548160ff02191690836001811115610366576103656111fb565b5b02179055506060820151816003015560808201518160040160006101000a81548160ff0219169083151502179055509050505050505050565b6103a761107c565b7f000000000000000000000000000000000000000000000000000000000000000073ffffffffffffffffffffffffffffffffffffffff163373ffffffffffffffffffffffffffffffffffffffff161461042c576040517f71d78b1200000000000000000000000000000000000000000000000000000000815260040160405180910390fd5b600015156000808473ffffffffffffffffffffffffffffffffffffffff1673ffffffffffffffffffffffffffffffffffffffff16815260200190815260200160002060040160009054906101000a900460ff161515036104b8576040517f60f4985300000000000000000000000000000000000000000000000000000000815260040160405180910390fd5b6000808373ffffffffffffffffffffffffffffffffffffffff1673ffffffffffffffffffffffffffffffffffffffff1681526020019081526020016000206040518060a001604052908160008201548152602001600182015481526020016002820160009054906101000a900460ff16600181111561053a576105396111fb565b5b600181111561054c5761054b6111fb565b5b8152602001600382015481526020016004820160009054906101000a900460ff1615151515815250509050919050565b7f000000000000000000000000000000000000000000000000000000000000000073ffffffffffffffffffffffffffffffffffffffff163373ffffffffffffffffffffffffffffffffffffffff1614610601576040517f71d78b1200000000000000000000000000000000000000000000000000000000815260040160405180910390fd5b80600260008473ffffffffffffffffffffffffffffffffffffffff1673ffffffffffffffffffffffffffffffffffffffff168152602001908152602001600020819055505050565b61065161107c565b60001515600160003373ffffffffffffffffffffffffffffffffffffffff1673ffffffffffffffffffffffffffffffffffffffff16815260200190815260200160002060009054906101000a900460ff161515036106db576040517f5187688c00000000000000000000000000000000000000000000000000000000815260040160405180910390fd5b600015156000808473ffffffffffffffffffffffffffffffffffffffff1673ffffffffffffffffffffffffffffffffffffffff16815260200190815260200160002060040160009054906101000a900460ff16151503610767576040517f60f4985300000000000000000000000000000000000000000000000000000000815260040160405180910390fd5b6000808373ffffffffffffffffffffffffffffffffffffffff1673ffffffffffffffffffffffffffffffffffffffff1681526020019081526020016000206040518060a001604052908160008201548152602001600182015481526020016002820160009054906101000a900460ff1660018111156107e9576107e86111fb565b5b60018111156107fb576107fa6111fb565b5b8152602001600382015481526020016004820160009054906101000a900460ff1615151515815250509050919050565b60026020528060005260406000206000915090505481565b60001515600160003373ffffffffffffffffffffffffffffffffffffffff1673ffffffffffffffffffffffffffffffffffffffff16815260200190815260200160002060009054906101000a900460ff161515036108cd576040517f5187688c00000000000000000000000000000000000000000000000000000000815260040160405180910390fd5b600015156000803373ffffffffffffffffffffffffffffffffffffffff1673ffffffffffffffffffffffffffffffffffffffff16815260200190815260200160002060040160009054906101000a900460ff16151503610959576040517f60f4985300000000000000000000000000000000000000000000000000000000815260040160405180910390fd5b60008060003373ffffffffffffffffffffffffffffffffffffffff1673ffffffffffffffffffffffffffffffffffffffff1681526020019081526020016000206040518060a001604052908160008201548152602001600182015481526020016002820160009054906101000a900460ff1660018111156109dd576109dc6111fb565b5b60018111156109ef576109ee6111fb565b5b8152602001600382015481526020016004820160009054906101000a900460ff1615151515815250509050816001811115610a2d57610a2c6111fb565b5b81604001906001811115610a4457610a436111fb565b5b90816001811115610a5857610a576111fb565b5b81525050806000803373ffffffffffffffffffffffffffffffffffffffff1673ffffffffffffffffffffffffffffffffffffffff168152602001908152602001600020600082015181600001556020820151816001015560408201518160020160006101000a81548160ff02191690836001811115610ada57610ad96111fb565b5b02179055506060820151816003015560808201518160040160006101000a81548160ff0219169083151502179055509050505050565b60016020528060005260406000206000915054906101000a900460ff1681565b600115156000803373ffffffffffffffffffffffffffffffffffffffff1673ffffffffffffffffffffffffffffffffffffffff16815260200190815260200160002060040160009054906101000a900460ff16151503610bbc576040517fc855e5d800000000000000000000000000000000000000000000000000000000815260040160405180910390fd5b610bc461107c565b6040518060a00160405280600081526020017f00000000000000000000000000000000000000000000000000000000000000008152602001836001811115610c0f57610c0e6111fb565b5b6001811115610c2157610c206111fb565b5b8152602001428152602001600115158152509050806000803373ffffffffffffffffffffffffffffffffffffffff1673ffffffffffffffffffffffffffffffffffffffff168152602001908152602001600020600082015181600001556020820151816001015560408201518160020160006101000a81548160ff02191690836001811115610cb357610cb26111fb565b5b02179055506060820151816003015560808201518160040160006101000a81548160ff0219169083151502179055509050505050565b7f000000000000000000000000000000000000000000000000000000000000000073ffffffffffffffffffffffffffffffffffffffff163373ffffffffffffffffffffffffffffffffffffffff1614610d6e576040517f71d78b1200000000000000000000000000000000000000000000000000000000815260040160405180910390fd5b60018060008373ffffffffffffffffffffffffffffffffffffffff1673ffffffffffffffffffffffffffffffffffffffff16815260200190815260200160002060006101000a81548160ff02191690831515021790555050565b7f000000000000000000000000000000000000000000000000000000000000000073ffffffffffffffffffffffffffffffffffffffff163373ffffffffffffffffffffffffffffffffffffffff1614610e4d576040517f71d78b1200000000000000000000000000000000000000000000000000000000815260040160405180910390fd5b60008060008373ffffffffffffffffffffffffffffffffffffffff1673ffffffffffffffffffffffffffffffffffffffff1681526020019081526020016000206040518060a001604052908160008201548152602001600182015481526020016002820160009054906101000a900460ff166001811115610ed157610ed06111fb565b5b6001811115610ee357610ee26111fb565b5b8152602001600382015481526020016004820160009054906101000a900460ff1615151515815250509050600080600260008573ffffffffffffffffffffffffffffffffffffffff1673ffffffffffffffffffffffffffffffffffffffff1681526020019081526020016000205403610f5f5760009050610fbd565b600a600260008573ffffffffffffffffffffffffffffffffffffffff1673ffffffffffffffffffffffffffffffffffffffff168152602001908152602001600020548360200151610fb0919061142f565b610fba9190611460565b90505b80826000018181525050816000808573ffffffffffffffffffffffffffffffffffffffff1673ffffffffffffffffffffffffffffffffffffffff168152602001908152602001600020600082015181600001556020820151816001015560408201518160020160006101000a81548160ff02191690836001811115611045576110446111fb565b5b02179055506060820151816003015560808201518160040160006101000a81548160ff021916908315150217905550905050505050565b6040518060a001604052806000815260200160008152602001600060018111156110a9576110a86111fb565b5b8152602001600081526020016000151581525090565b600080fd5b600073ffffffffffffffffffffffffffffffffffffffff82169050919050565b60006110ef826110c4565b9050919050565b6110ff816110e4565b811461110a57600080fd5b50565b60008135905061111c816110f6565b92915050565b6000819050919050565b61113581611122565b811461114057600080fd5b50565b6000813590506111528161112c565b92915050565b60008060008060808587031215611172576111716110bf565b5b60006111808782880161110d565b945050602061119187828801611143565b93505060406111a287828801611143565b92505060606111b387828801611143565b91505092959194509250565b6000602082840312156111d5576111d46110bf565b5b60006111e38482850161110d565b91505092915050565b6111f581611122565b82525050565b7f4e487b7100000000000000000000000000000000000000000000000000000000600052602160045260246000fd5b6002811061123b5761123a6111fb565b5b50565b600081905061124c8261122a565b919050565b600061125c8261123e565b9050919050565b61126c81611251565b82525050565b60008115159050919050565b61128781611272565b82525050565b60a0820160008201516112a360008501826111ec565b5060208201516112b660208501826111ec565b5060408201516112c96040850182611263565b5060608201516112dc60608501826111ec565b5060808201516112ef608085018261127e565b50505050565b600060a08201905061130a600083018461128d565b92915050565b60008060408385031215611327576113266110bf565b5b60006113358582860161110d565b925050602061134685828601611143565b9150509250929050565b61135981611122565b82525050565b60006020820190506113746000830184611350565b92915050565b6000602082840312156113905761138f6110bf565b5b600061139e84828501611143565b91505092915050565b6113b081611272565b82525050565b60006020820190506113cb60008301846113a7565b92915050565b7f4e487b7100000000000000000000000000000000000000000000000000000000600052601260045260246000fd5b7f4e487b7100000000000000000000000000000000000000000000000000000000600052601160045260246000fd5b600061143a82611122565b915061144583611122565b925082611455576114546113d1565b5b828204905092915050565b600061146b82611122565b915061147683611122565b925082820261148481611122565b9150828204841483151761149b5761149a611400565b5b509291505056fea26469706673582212200488466953b7acb330a410700e54bbe321675ea45502517c782e04583ecf124064736f6c63430008110033",
  "devdoc": {
    "kind": "dev",
    "methods": {},
    "version": 1
  },
  "userdoc": {
    "kind": "user",
    "methods": {},
    "version": 1
  },
  "storageLayout": {
    "storage": [
      {
        "astId": 33,
        "contract": "contracts/CreditInfo.sol:CreditInfo",
        "label": "creditInfo",
        "offset": 0,
        "slot": "0",
        "type": "t_mapping(t_address,t_struct(Info)24_storage)"
      },
      {
        "astId": 37,
        "contract": "contracts/CreditInfo.sol:CreditInfo",
        "label": "isAuthorised",
        "offset": 0,
        "slot": "1",
        "type": "t_mapping(t_address,t_bool)"
      },
      {
        "astId": 41,
        "contract": "contracts/CreditInfo.sol:CreditInfo",
        "label": "paymentHistory",
        "offset": 0,
        "slot": "2",
        "type": "t_mapping(t_address,t_uint256)"
      }
    ],
    "types": {
      "t_address": {
        "encoding": "inplace",
        "label": "address",
        "numberOfBytes": "20"
      },
      "t_bool": {
        "encoding": "inplace",
        "label": "bool",
        "numberOfBytes": "1"
      },
      "t_enum(Type)12": {
        "encoding": "inplace",
        "label": "enum CreditInfo.Type",
        "numberOfBytes": "1"
      },
      "t_mapping(t_address,t_bool)": {
        "encoding": "mapping",
        "key": "t_address",
        "label": "mapping(address => bool)",
        "numberOfBytes": "32",
        "value": "t_bool"
      },
      "t_mapping(t_address,t_struct(Info)24_storage)": {
        "encoding": "mapping",
        "key": "t_address",
        "label": "mapping(address => struct CreditInfo.Info)",
        "numberOfBytes": "32",
        "value": "t_struct(Info)24_storage"
      },
      "t_mapping(t_address,t_uint256)": {
        "encoding": "mapping",
        "key": "t_address",
        "label": "mapping(address => uint256)",
        "numberOfBytes": "32",
        "value": "t_uint256"
      },
      "t_struct(Info)24_storage": {
        "encoding": "inplace",
        "label": "struct CreditInfo.Info",
        "members": [
          {
            "astId": 14,
            "contract": "contracts/CreditInfo.sol:CreditInfo",
            "label": "creditScore",
            "offset": 0,
            "slot": "0",
            "type": "t_uint256"
          },
          {
            "astId": 16,
            "contract": "contracts/CreditInfo.sol:CreditInfo",
            "label": "creditLimit",
            "offset": 0,
            "slot": "1",
            "type": "t_uint256"
          },
          {
            "astId": 19,
            "contract": "contracts/CreditInfo.sol:CreditInfo",
            "label": "_type",
            "offset": 0,
            "slot": "2",
            "type": "t_enum(Type)12"
          },
          {
            "astId": 21,
            "contract": "contracts/CreditInfo.sol:CreditInfo",
            "label": "creditInquiry",
            "offset": 0,
            "slot": "3",
            "type": "t_uint256"
          },
          {
            "astId": 23,
            "contract": "contracts/CreditInfo.sol:CreditInfo",
            "label": "IsPresent",
            "offset": 0,
            "slot": "4",
            "type": "t_bool"
          }
        ],
        "numberOfBytes": "160"
      },
      "t_uint256": {
        "encoding": "inplace",
        "label": "uint256",
        "numberOfBytes": "32"
      }
    }
  }
}